:02000000AB282B
:0E0006008312031321088A00200882000800DC
:10001400710DF80DF90D7408F8027508031C750FBD
:10002400F902F00DF10D0F30FC00710DF80DF90D12
:100034007408701C2328F8027508031C750FF90254
:100044002828F80775080318750FF907F00DF10D46
:10005400FC0B1728701834287408F807750803185F
:08006400750FF9070000080008
:10006C00831203137408003A031D45287508003ADF
:10007C00031D4528FF30F0007F30F1009E288312CD
:10008C000313FD01F901F801710870040319003420
:10009C0071087506FA00FA1BFD09FB01F51F5B28B8
:1000AC00F409F509F40A0319F50AF11F6228F0099D
:1000BC00F109F00A0319F10A71087504FA00FA1B28
:1000CC0077280A207B188A28FD1F0034F009F109D3
:1000DC00F00A0319F10AF809F909F80A0319F90ADF
:1000EC000034F51F8628F11B82287108F90070086E
:1000FC00F800F101F0016A28F101F001F00A003476
:10010C00F109F009FB0A6728F80A0319F90A7408BF
:10011C007802031D6A2875087902031D6A28F90103
:10012C00F801F00A0319F10AF11F6A280000FF34E4
:02013C000800B9
:10013E0003208A110A128000840AA00A0319A10A58
:08014E00F003031D9F280800C7
:10015600C03083120313B2000030B300F930B4008C
:100166000030B500A430B6000030B700B030B8009B
:100176000030B9009930BA000030BB009230BC00A4
:100186000030BD008230BE000030BF00F830C00035
:100196000030C1008030C2000030C3009030C4007F
:1001A6000030C5000130AC000030AD00A201A30153
:1001B600AA01AB010230AE000030AF000130B00042
:1001C6000030B100831688018601C0308312880092
:1001D60000302506031DF1280A302406031DF828E1
:1001E600A201A301AA0A0319AB0A00302B06031DBC
:1001F600FE2806302A06031D0729A201A301A60A26
:100206000319A70AAA01AB0100302706031D0D2911
:100216000A302606031D1429A601A701A80A0319F8
:10022600A90A00302906031D1A2906302806031DCF
:100236002529A201A301A601A701A801A901AE0AC9
:100246000319AF0A00302F06031D2B290A302E068C
:10025600031D3229AE01AF01B00A0319B10A0030FD
:100266003106031D382901303006031D46290030AA
:100276002F06031D402903302E06031D4629B00113
:10028600B101AE01AF012C088600F430F400013054
:10029600F5002208F0002308F10036207008A400BB
:1002A6007108A50000302D06031D5B2901302C06C0
:1002B600031D73292408F0002508F100F00DF10D47
:1002C60070107008323E8400000888000330FC007D
:1002D6009730FD00FD0B6D29FC0B6D290000000019
:1002E60000302D06031D792902302C06031D9129A5
:1002F6002A08F0002B08F100F00DF10D70107008BF
:10030600323E8400000888000330FC009730FD0070
:10031600FD0B8B29FC0B8B290000000000302D06FD
:10032600031D972904302C06031DAF292608F0006B
:100336002708F100F00DF10D70107008323E8400B0
:10034600000888000330FC009730FD00FD0BA9294A
:10035600FC0BA9290000000000302D06031DB5295D
:1003660008302C06031DCD292808F0002908F100C5
:10037600F00DF10D70107008323E84000008880000
:100386000330FC009730FD00FD0BC729FC0BC72985
:100396000000000000302D06031DD32910302C0666
:1003A600031DEB292E08F0002F08F100F00DF10DCA
:1003B60070107008323E8400000888000330FC008C
:1003C6009730FD00FD0BE529FC0BE5290000000038
:1003D60000302D06031DF12920302C06031D092AA5
:1003E6003008F0003108F100F00DF10D70107008C2
:1003F600323E8400000888000330FC009730FD0080
:10040600FD0B032AFC0B032A000000000330FC004E
:100416009730FD00FD0B0D2AFC0B0D2A0000000095
:100426002C08F1002D08F200F10DF20D7110710883
:10043600AC007208AD00A20A0319A30A00307206C6
:10044600031D272A40307106031D2D2A0130AC00FA
:080456000030AD00EB282E2A56
:02400E004A2F37
:00000001FF
